:020000040800F2
:10000000680600200D0200084B0200084D0200089F
:100010004F020008510200085302000800000000CF
:100020000000000000000000000000005502000871
:100030005702000800000000590200085B02000897
:100040005D0200085D0200085D0200085D02000814
:100050005D0200085D0200085D0200085D02000804
:100060005D0200085D0200085D0200085D020008F4
:100070005D0200085D0200085D0200085D020008E4
:100080005D0200085D0200085D0200085D020008D4
:100090005D0200085D0200085D0200085D020008C4
:1000A0005D0200085D0200085D0200085D020008B4
:1000B0005D0200085D0200085D0200085D020008A4
:1000C0005D0200085D0200085D0200085D02000894
:1000D0005D0200085D0200085D0200085D02000884
:1000E0005D0200085D0200085D0200085D02000874
:1000F0005D0200085D0200085D0200085D02000864
:100100005D0200085D0200085D0200085D02000853
:100110005D0200085D0200085D0200085D02000843
:100120005D0200085D0200085D0200085D02000833
:100130005D0200085D0200085D0200085D02000823
:100140005D0200085D0200085D0200085D02000813
:100150005D0200085D0200085D0200085D02000803
:100160005D0200085D0200085D0200085D020008F3
:100170005D0200085D0200085D020008000000004A
:100180005D0200085D02000800F002F800F02EF8A1
:100190000AA090E8000C82448344AAF10107DA45E2
:1001A00001D100F023F8AFF2090EBAE80F0013F006
:1001B000010F18BFFB1A43F001031847F4020000B7
:1001C000040300000023002400250026103A28BF65
:1001D00078C1FBD8520728BF30C148BF0B607047B9
:1001E0001FB500F057F91FBD10B510BD00F057F84E
:1001F0001146FFF7F5FF00F035F900F075F803B48C
:10020000FFF7F2FF03BC00F07DF800001748184923
:10021000184B99423CBF50F8042B41F8042BF8D3FB
:10022000154B16494FF000028B4238BF43F8042BA0
:10023000FAD3DFF84C00016841F470010160BFF3AC
:100240004F8FBFF36F8F0F480047FEE7FEE7FEE7D3
:10025000FEE7FEE7FEE7FEE7FEE7FEE7FEE700005B
:1002600009480A490A4A0B4B70470000C0040008BD
:100270000000002000000020000000206806002090
:1002800088ED00E089010008680000206806002071
:10029000680200206802002070477047704775466A
:1002A00000F02CF8AE4605006946534620F00700E2
:1002B000854618B020B5FFF7D3FFBDE820404FF0CA
:1002C00000064FF000074FF000084FF0000BAC465F
:1002D000ACE8C009ACE8C009ACE8C009ACE8C009AA
:1002E00021F007018D46704710B50446AFF300803A
:1002F0002046BDE81040FFF782BF0000004870476D
:100300000000002001491820ABBEFEE726000200D5
:100310007047000041F20001C4F20201086840F495
:1003200080700860FFE741F20000C4F2020000683C
:100330004005002801D4FFE7F5E741F20801C4F2C7
:100340000201086820F003000860086840F001001E
:100350000860FFE741F20800C4F20200006810F0F4
:100360000C0F01D1FFE7F5E741F24C01C4F20201A5
:10037000086840F001000860086840F00400086068
:100380004FF09041086820F4006008600421C4F632
:100390000001086820F0200008600C21C4F600016C
:1003A000086820F44060086040F60002C4F60002CD
:1003B000106820F040601060086820F0406008601D
:1003C0001421C4F60001086840F02000086040F2E3
:1003D0006001C2F2000101200870704782B040F64F
:1003E0001000C4F60000006800F40051012080EA0B
:1003F00051318DF806109DF8061088438DF80500E0
:1004000040F26000C2F2000000780146009188B11D
:10041000FFE7009801281CD1FFE79DF80600C00700
:1004200038B1FFE740F26001C2F20001002008701D
:10043000FFE70EE09DF80500C00748B1FFE740F276
:100440006001C2F20001012008708DF8070004E08D
:10045000FFE700208DF80700FFE79DF8070002B0D6
:100460007047000080B582B000200190FFF752FF76
:10047000FFE7FFF7B3FF18B1FFE700F003F8FFE76E
:10048000F7E700001421C4F60001086880F020009E
:1004900008607047F1EE100A4FF6FF71C0F2C031EC
:1004A00020EA010040F04070E1EE100A70470000C1
:1004B000C00400080000002068060000C401000815
:040000050800018965
:00000001FF
